:1000000012C02AC029C028C05CC126C025C024C097
:1000100023C022C021C020C01FC01EC01DC01CC0E4
:100020001BC01AC019C011241FBECFEDCDBF10E0F8
:10003000A0E6B0E0E2E5F6E002C005900D92AE3633
:10004000B107D9F710E0AEE6B0E001C01D92A73BC2
:10005000B107E1F78FD1FBC2D3CF2091610030917E
:10006000620080916300909164009093620080939D
:10007000610030936400209363002091650030910B
:10008000660080916700909168009093660080936D
:100090006500309368002093670008951F93CF9305
:1000A000DF9391E040E021E030E0E0916700F091E3
:1000B0006800E20FF31F892F80958083F901E657CE
:1000C000FF4F8081F901E255FF4F80838111492B59
:1000D0002F5F3F4F2930310511F0990FE6CFE091A6
:1000E0006700F09168004083CFEAD0E091E021E022
:1000F00041E050E037C0E92FF0E0E255FF4FE081EA
:10010000E81710F0E82F01C0292F9F5F8E2F99303C
:1001100090F32617D9F030E0F901E255FF4F9081B6
:10012000888180839883E0916700F0916800DF0107
:10013000A20FB31F9C91E40FF51F80818C93E09177
:100140006700F0916800E40FF51F90836F5F2196C0
:100150004F5F5F4F262F962F4930510519F418E055
:1001600041E02BC0642F8FEFD2CF992389F0E0912B
:100170006700F0916800842F90E00196DF01A80FDE
:10018000B91F0197E80FF91F8C91908189238C93F7
:10019000942F10C0292F30E0F901E255FF4F8181E3
:1001A0008083E0916700F0916800E20FF31F818186
:1001B00080839F5F911770F31150E42FF0E0E255B8
:1001C000FF4F90818181981711F0992311F4411705
:1001D00060F24F5F411788F3E42FF0E0E255FF4FE4
:1001E0008081882309F41150C0916300D09164008C
:1001F000112341F480E897E0998388839B838A8365
:1002000011E031C0E12FF0E0DF01AA0FBB1FAC0FFE
:10021000BD1FE255FF4F208180E091E0821B9109D4
:100220006FE070E04ED18D939C938081312F13C08D
:10023000E32FF0E0DF01AA0FBB1FAC0FBD1F90E062
:10024000E255FF4F2081821B91096FE070E039D1A8
:100250008D939C938081315059F790E06FE070E06E
:1002600030D1998388831092780080917800882318
:10027000E1F3F89420916100309162008091630075
:1002800090916400909362008093610030936400C9
:100290002093630020916500309166008091670093
:1002A0009091680090936600809365003093680099
:1002B00020936700109360007894DF91CF911F9195
:1002C00008951F920F920FB60F9211242F933F9310
:1002D0004F935F936F938F939F93EF93FF932AB501
:1002E0003BB560916E00462F50E0CA01880F991F00
:1002F000E0916100F0916200E80FF91F8081918127
:10030000280F391F3BBD2ABDE0916500F0916600C2
:10031000E40FF51FE081662329F4E8BB81E08093B8
:100320006E0010C088B3E823E8BB809160006817B6
:1003300031F481E08093780010926E0003C06F5F0B
:1003400060936E00FF91EF919F918F916F915F91FC
:100350004F913F912F910F900FBE0F901F901895C6
:1003600028EE33E004C0F9013197F1F701970097C7
:10037000D1F70895AF92BF92DF92EF92FF920F9361
:100380001F93DF93CF93CDB7DEB72A970FB6F894BC
:10039000DEBF0FBECDBF8FEF87BB82E08EBD89B7BA
:1003A000806489BF789410E05E010894A11CB11CA0
:1003B00022C07501E10EF11CF7010081202F30E011
:1003C0003A8729876FD06AEF70E08DD0F701D0802F
:1003D00029853A858217930734F464D06AE070E087
:1003E00082D0D81A05C05ED06AE070E07CD0D80E0A
:1003F000F701D0821F5F1830E0F2ABE8B0E0F50102
:1004000088E001900D928150E1F748DE10E0F3CFD3
:10041000A0E0B0E0EDE0F2E0C9C0EC01A880B98056
:10042000CA80DB80A114B104C104D10441F484E288
:10043000A82E89EDB82E8BE5C82E87E0D82EC601F0
:10044000B5012DE133EF41E050E08DD027EA31E4F2
:1004500040E050E06FD07B018C01C601B5012DE179
:1004600033EF41E050E07FD0CA01B9012CEE34EF08
:100470004FEF5FEF5FD06E0D7F1D801F911F97FFC5
:1004800004C06150704080409048688379838A83BB
:100490009B839B013F77C901CDB7DEB7EAE0A2C0DD
:1004A000B7DF089589E690E0B3DF0895A0E0B0E0FB
:1004B0008093690090936A00A0936B00B0936C00E6
:1004C00008955527002480FF02C0060E571F660FAF
:1004D000771F6115710521F096958795009799F71B
:1004E000952F802D089597FB092E07260AD077FDBA
:1004F00004D00CD006D000201AF4709561957F4F7F
:100500000895F6F7909581959F4F0895AA1BBB1B00
:1005100051E107C0AA1FBB1FA617B70710F0A61B03
:10052000B70B881F991F5A95A9F780959095BC0124
:10053000CD010895FF27EE27BB27AA2760FF04C03F
:10054000A20FB31FE41FF51F220F331F441F551FB7
:10055000969587957795679589F70097760771F750
:10056000CF01BD01089597FB092E05260ED057FD3A
:1005700004D04BD00AD0001C38F4509540953095EB
:1005800021953F4F4F4F5F4F0895F6F79095809517
:10059000709561957F4F8F4F9F4F08952F923F9297
:1005A0004F925F926F927F928F929F92AF92BF9283
:1005B000CF92DF92EF92FF920F931F93CF93DF932F
:1005C000CDB7DEB7CA1BDB0B0FB6F894DEBF0FBE8C
:1005D000CDBF09942A88398848885F846E847D84D9
:1005E0008C849B84AA84B984C884DF80EE80FD80DB
:1005F0000C811B81AA81B981CE0FD11D0FB6F89451
:10060000DEBF0FBECDBFED010895A1E21A2EAA1BD9
:10061000BB1BFD010DC0AA1FBB1FEE1FFF1FA217B2
:10062000B307E407F50720F0A21BB30BE40BF50BAF
:10063000661F771F881F991F1A9469F76095709538
:10064000809590959B01AC01BD01CF010895F89470
:02065000FFCFDA
:0E06520001930079006F00A500010000000078
:00000001FF
