:1000000012C02AC029C028C060C126C025C024C093
:1000100023C022C021C020C01FC01EC01DC01CC0E4
:100020001BC01AC019C011241FBECFEDCDBF10E0F8
:10003000A0E6B0E0EEE5F6E002C005900D92AE3627
:10004000B107D9F710E0AEE6B0E001C01D92A73BC2
:10005000B107E1F799D101C3D3CF2091610030916D
:10006000620080916300909164009093620080939D
:10007000610030936400209363002091650030910B
:10008000660080916700909168009093660080936D
:10009000650030936800209367000895CF93DF9345
:1000A00091E040E021E030E0E0916700F0916800ED
:1000B000E20FF31F892F80958083F901E657FF4FE8
:1000C0008081F901E255FF4F80838111492B2F5F19
:1000D0003F4F2930310511F0990FE6CFE0916700CD
:1000E000F09168004083CFEAD0E091E021E041E068
:1000F00050E037C0E92FF0E0E255FF4FE081E8170C
:1001000010F0E82F01C0292F9F5F8E2F993090F3B8
:100110002617D9F030E0F901E255FF4F9081888130
:1001200080839883E0916700F0916800DF01A20F5F
:10013000B31F9C91E40FF51F80818C93E0916700C1
:10014000F0916800E40FF51F90836F5F21964F5F79
:100150005F4F262F962F4930510519F458E041E0A2
:100160002BC0642F8FEFD2CF992389F0E0916700E5
:10017000F0916800842F90E00196DF01A80FB91F6D
:100180000197E80FF91F8C91908189238C93942F0C
:1001900010C0292F30E0F901E255FF4F81818083A3
:1001A000E0916700F0916800E20FF31F8181808386
:1001B0009F5F951770F35150E42FF0E0E255FF4F29
:1001C00090818181981711F0992311F4451760F2FD
:1001D0004F5F451788F3E42FF0E0E255FF4F808131
:1001E000882309F45150C0916300D09164005523D5
:1001F00041F480E090E1998388839B838A8351E076
:1002000037C0E52FF0E0DF01AA0FBB1FAC0FBD1F09
:10021000E255FF4F208180E091E0821B910975E05B
:10022000880F991F7A95E1F78D939C93E081952F24
:1002300014C0E92FF0E0DF01AA0FBB1FAC0FBD1FF8
:10024000E255FF4F8081281B310945E0220F331F03
:100250004A95E1F72D933C93E08191502E2F30E0A9
:1002600041F785E0220F331F8A95E1F73983288310
:1002700010927800809178008823E1F3F89420911F
:1002800061003091620080916300909164009093CE
:10029000620080936100309364002093630020919A
:1002A000650030916600809167009091680090939E
:1002B0006600809365003093680020936700509338
:1002C00060007894DF91CF9108951F920F920FB63E
:1002D0000F9211242F933F934F935F936F938F93BC
:1002E0009F93EF93FF932AB53BB560916E00462F25
:1002F00050E0CA01880F991FE0916100F0916200FF
:10030000E80FF91F80819181280F391F3BBD2ABD5D
:10031000E0916500F0916600E40FF51FE08166232F
:1003200029F4E8BB81E080936E0010C088B3E82315
:10033000E8BB80916000681731F481E08093780019
:1003400010926E0003C06F5F60936E00859BC09833
:10035000849BC198839BC298829BC398C89BC49876
:10036000C99BC598819BC698809BC798FF91EF91C8
:100370009F918F916F915F914F913F912F910F902E
:100380000FBE0F901F9018958F929F92AF92BF92C1
:10039000DF92EF92FF920F931F93DF93CF93CDB72E
:1003A000DEB728970FB6F894DEBF0FBECDBF11BAE7
:1003B0001ABA8FEF82BB8BBB87BB82E08EBD89B739
:1003C000806489BF2BE088E190E00FB6F894A8958F
:1003D00081BD0FBE21BD78945E010894A11CB11CA3
:1003E000F9E08F2E912C8C0E9D1EA8957501F701BA
:1003F000008110E096D06AEF70E022D0F701D08043
:100400008017910734F48DD068E270E019D0D81AC3
:1004100005C087D06EE170E013D0D80EF701D0820E
:100420000894E11CF11CE814F90409F7ABE8B0E00A
:10043000F50188E001900D928150E1F72FDED5CFD4
:1004400097FB092E07260AD077FD04D00CD006D0E2
:1004500000201AF4709561957F4F0895F6F79095F6
:1004600081959F4F0895AA1BBB1B51E107C0AA1F8E
:10047000BB1FA617B70710F0A61BB70B881F991F45
:100480005A95A9F780959095BC01CD010895A0E0FB
:10049000B0E0ECE4F2E090C0EC01A880B980CA8042
:1004A000DB80A114B104C104D10441F484E2A82E7C
:1004B00089EDB82E8BE5C82E87E0D82EC601B50190
:1004C0002DE133EF41E050E054D027EA31E440E041
:1004D00050E036D07B018C01C601B5012DE133EF30
:1004E00041E050E046D0CA01B9012CEE34EF4FEFA5
:1004F0005FEF26D06E0D7F1D801F911F97FF04C0F8
:100500006150704080409048688379838A839B83E0
:100510009B013F77C901CDB7DEB7EAE069C0B7DF1D
:10052000089589E690E0B3DF0895A0E0B0E08093FD
:10053000690090936A00A0936B00B0936C000895DB
:10054000FF27EE27BB27AA2760FF04C0A20FB31F17
:10055000E41FF51F220F331F441F551F96958795E3
:100560007795679589F70097760771F7CF01BD01F9
:10057000089597FB092E05260ED057FD04D04BD0C9
:100580000AD0001C38F450954095309521953F4F86
:100590004F4F5F4F0895F6F7909580957095619550
:1005A0007F4F8F4F9F4F08952F923F924F925F92B0
:1005B0006F927F928F929F92AF92BF92CF92DF9273
:1005C000EF92FF920F931F93CF93DF93CDB7DEB7D8
:1005D000CA1BDB0B0FB6F894DEBF0FBECDBF09946C
:1005E0002A88398848885F846E847D848C849B84C3
:1005F000AA84B984C884DF80EE80FD800C811B81D1
:10060000AA81B981CE0FD11D0FB6F894DEBF0FBEFF
:10061000CDBFED010895A1E21A2EAA1BBB1BFD015F
:100620000DC0AA1FBB1FEE1FFF1FA217B307E407D1
:10063000F50720F0A21BB30BE40BF50B661F771F29
:10064000881F991F1A9469F7609570958095909509
:0E0650009B01AC01BD01CF010895F894FFCFCE
:0E065E0001930079006F00A50001000000006C
:00000001FF
