:1000000012C02AC029C028C05DC226C025C024C095
:1000100023C022C021C020C01FC01EC01DC01CC0E4
:100020001BC01AC019C011241FBECFEDCDBF10E0F8
:10003000A0E6B0E0ECE2FAE002C005900D92AE3628
:10004000B107D9F710E0AEE6B0E001C01D92A73BC2
:10005000B107E1F747D3E8C4D3CFDF93CF93CDB750
:10006000DEB7C450CDBF80916100909162009A8349
:1000700089838091630090916400909362008093E3
:10008000610089819A8190936400809363008091DC
:100090006500909166009C838B83809167009091AE
:1000A000680090936600809365008B819C8190939B
:1000B000680080936700CC5FCDBFCF91DF9108953A
:1000C000DF93CF93CDB7DEB7C550CDBF1D8281E0A2
:1000D0008A8381E0898330C0209167003091680075
:1000E0008981882F90E0820F931F2A812095FC013F
:1000F00020838981882F90E02981222F30E02150B0
:10010000304025573F4FF901208182559F4FFC0118
:1001100020838981882F90E082559F4FFC01808148
:10012000882321F09D818A81892B8D838A81880F84
:100130008A8389818F5F89838981893068F2809180
:100140006700909168002D81FC01208381E0898304
:1001500075C08FEF8C8389818B8389818A8317C0D7
:100160008A81882F90E082559F4FFC0190818C817D
:10017000981750F48A818B838A81882F90E082556A
:100180009F4FFC0180818C838A818F5F8A838A8163
:10019000893030F39B818981981709F44CC08B8199
:1001A000882F90E082559F4FFC0180818D838B8149
:1001B000882F90E02981222F30E022553F4FF9010E
:1001C000208182559F4FFC0120838981882F90E0F8
:1001D00082559F4F2D81FC01208320916700309133
:1001E00068008B81882F90E0820F931FFC01808133
:1001F0008D8320916700309168008B81882F90E07B
:10020000820F931F40916700509168002981222F2F
:1002100030E0240F351FF9012081FC01208320915B
:100220006700309168008981882F90E0820F931FCA
:100230002D81FC01208389818F5F898389818930A9
:1002400008F487CF88E08B8381E0898387C0898128
:10025000882F90E082559F4FFC018081882329F1EF
:1002600020916700309168008981882F90E0019685
:10027000820F931F40916700509168002981222FBF
:1002800030E02F5F3F4F240F351FF901608140910F
:100290006700509168002981222F30E0240F351F1C
:1002A000F90120812623FC01208389818A832BC0C8
:1002B0008A81882F90E02A81222F30E02F5F3F4FE4
:1002C00022553F4FF901208182559F4FFC01208329
:1002D00020916700309168008A81882F90E0820F1A
:1002E000931F40916700509168002A81222F30E0CF
:1002F0002F5F3F4F240F351FF9012081FC01208320
:100300008A818F5F8A839A818B81981788F28B818B
:1003100081508B8301C000008981882F90E0825535
:100320009F4FFC0120818981882F90E001968255A2
:100330009F4FFC018081281749F08981882F90E028
:1003400082559F4FFC018081882329F49B818981FC
:10035000891708F47CCF89818F5F89839B8189818C
:100360008917C8F28981882F90E082559F4FFC0140
:100370008081882319F48B8181508B838B81882322
:10038000B1F4809163009091640020E030E1FC01C1
:10039000318320838091630090916400029620E075
:1003A00030E1FC013183208381E08B8379C08B8134
:1003B000898320916300309164008981882F90E0C7
:1003C000880F991F820F931F2981222F30E0225519
:1003D0003F4FF9012081222F30E040E051E0BA0187
:1003E000621B730B9B01220F331F22953295307FC6
:1003F0003227207F3227FC01318320838981882F97
:1004000090E082559F4FFC0180818A8389818150D1
:10041000898331C020916300309164008981882FE5
:1004200090E0880F991F820F931F2A81422F50E07E
:100430002981222F30E022553F4FF9012081222FC0
:1004400030E0BA01621B730B9B01220F331F229510
:100450003295307F3227207F3227FC013183208381
:100460008981882F90E082559F4FFC0180818A838B
:100470008981815089838981882361F68091630015
:10048000909164002A81222F30E0220F331F2295A1
:100490003295307F3227207F3227FC013183208341
:1004A000109278000000809178008823E1F3F8949E
:1004B000D4DD8B81809360007894CB5FCDBFCF91EA
:1004C000DF9108951F920F920FB60F9211242F9370
:1004D0003F934F935F936F937F938F939F93EF938C
:1004E000FF93DF93CF930F92CDB7DEB78AE490E00E
:1004F0002AE430E0F90140815181609161007091FE
:10050000620020916E00222F30E0220F331F260F51
:10051000371FF90120813181240F351FFC01318300
:100520002083209165003091660080916E00882FB5
:1005300090E0820F931FFC018081898380916E007F
:10054000882359F488E390E02981FC01208380917D
:100550006E008F5F80936E001BC088E390E028E3FD
:1005600030E0F901308129812323FC01208390911F
:100570006E0080916000981731F481E080937800DC
:1005800010926E0005C080916E008F5F80936E00A8
:1005900080E390E0FC018081882F90E08072907071
:1005A000009749F488E390E028E330E0F9012081E6
:1005B0002E7FFC01208380E390E0FC018081882F66
:1005C00090E080719070009749F488E390E028E310
:1005D00030E0F90120812D7FFC01208380E390E051
:1005E000FC018081882F90E088709070009749F41A
:1005F00088E390E028E330E0F90120812B7FFC01C3
:10060000208380E390E0FC018081882F90E084705B
:100610009070009749F488E390E028E330E0F90116
:100620002081277FFC01208389E390E0FC01808109
:10063000882F90E081709070009749F488E390E0F3
:1006400028E330E0F90120812F7EFC01208389E33B
:1006500090E0FC018081882F90E08270907000977C
:1006600049F488E390E028E330E0F90120812F7D10
:10067000FC01208380E390E0FC018081882F90E0E2
:1006800082709070009749F488E390E028E330E0AE
:10069000F90120812F7BFC01208380E390E0FC01A5
:1006A0008081882F90E081709070009749F488E3F2
:1006B00090E028E330E0F90120812F77FC012083CE
:1006C0000F90CF91DF91FF91EF919F918F917F914B
:1006D0006F915F914F913F912F910F900FBE0F90AF
:1006E0001F901895FF920F931F93DF93CF93CDB771
:1006F000DEB7C950CDBF81E390E0FC0110828AE3F0
:1007000090E0FC01108282E390E02FEFFC01208357
:100710008BE390E02FEFFC01208387E390E02FEF45
:10072000FC0120838EE490E022E0FC01208389E537
:1007300090E029E530E0F90120812064FC0120836C
:1007400088E190E02BE00FB6F894A89581BD0FBE2C
:1007500021BD7894A89519824CC08981882F90E09A
:100760009E012E5F3F4F820F931FFC018081082F57
:1007700010E0B5D02AEF30E0B9014AD080179107D8
:10078000DCF48981082F10E08981882F90E09E0198
:100790002E5F3F4F820F931FFC01F080A0D028E214
:1007A00030E0B90135D02F2D281BCE010296800FE5
:1007B000911FFC0120831AC08981082F10E08981D4
:1007C000882F90E09E012E5F3F4F820F931FFC0108
:1007D000F08085D02EE130E0B9011AD02F2D280FFE
:1007E000CE010296800F911FFC01208389818F5FCB
:1007F00089838981883008F4B0CF8BE890E09E012E
:100800002E5F3F4FB90148E050E078D059DCA2CFCD
:1008100097FB092E07260AD077FD04D00CD006D00E
:1008200000201AF4709561957F4F0895F6F7909522
:1008300081959F4F0895AA1BBB1B51E107C0AA1FBA
:10084000BB1FA617B70710F0A61BB70B881F991F71
:100850005A95A9F780959095BC01CD010895A0E027
:10086000B0E0E4E3F4E08FC0EC01688179818A8133
:100870009B81611571058105910521F464E279ED93
:100880008BE597E02DE133EF41E050E059D079015D
:100890008A0127EA31E440E050E039D05B016C0185
:1008A000C801B7012CEE34EF4FEF5FEF30D09B0162
:1008B000AC012A0D3B1D4C1D5D1D57FF04C021508E
:1008C000304040405048288339834A835B833F77D8
:1008D000C901CDB7DEB7EAE072C0C1DF089589E68D
:1008E00090E0BDDF0895A0E0B0E0809369009093B0
:1008F0006A00A0936B00B0936C000895FB01DC01CB
:1009000002C001900D9241505040D8F70895FF2742
:10091000EE27BB27AA2760FF04C0A20FB31FE41F66
:10092000F51F220F331F441F551F96958795779506
:10093000679589F70097760771F7CF01BD01089594
:1009400097FB092E05260ED057FD04D04BD00AD0B8
:10095000001C38F450954095309521953F4F4F4FEE
:100960005F4F0895F6F790958095709561957F4F4C
:100970008F4F9F4F08952F923F924F925F926F92A9
:100980007F928F929F92AF92BF92CF92DF92EF921F
:10099000FF920F931F93CF93DF93CDB7DEB7CA1BA0
:1009A000DB0B0FB6F894DEBF0FBECDBF09942A88CB
:1009B000398848885F846E847D848C849B84AA8473
:1009C000B984C884DF80EE80FD800C811B81AA8100
:1009D000B981CE0FD11D0FB6F894DEBF0FBECDBFCB
:1009E000ED010895A1E21A2EAA1BBB1BFD010DC04B
:1009F000AA1FBB1FEE1FFF1FA217B307E407F507CF
:100A000020F0A21BB30BE40BF50B661F771F881FAA
:100A1000991F1A9469F760957095809590959B0140
:0C0A2000AC01BD01CF010895F894FFCF98
:0E0A2C0001930079006F00A50001000000009A
:00000001FF
